{"abi":[{"type":"constructor","inputs":[],"stateMutability":"nonpayable"},{"type":"function","name":"WHERE_REGISTRY","inputs":[],"outputs":[{"name":"","type":"address","internalType":"address"}],"stateMutability":"view"},{"type":"function","name":"WHO_REGISTRY","inputs":[],"outputs":[{"name":"","type":"address","internalType":"address"}],"stateMutability":"view"},{"type":"function","name":"eip712Domain","inputs":[],"outputs":[{"name":"fields","type":"bytes1","internalType":"bytes1"},{"name":"name","type":"string","internalType":"string"},{"name":"version","type":"string","internalType":"string"},{"name":"chainId","type":"uint256","internalType":"uint256"},{"name":"verifyingContract","type":"address","internalType":"address"},{"name":"salt","type":"bytes32","internalType":"bytes32"},{"name":"extensions","type":"uint256[]","internalType":"uint256[]"}],"stateMutability":"view"},{"type":"function","name":"increaseNonce","inputs":[{"name":"where","type":"address","internalType":"address"}],"outputs":[],"stateMutability":"nonpayable"},{"type":"function","name":"isOptedIn","inputs":[{"name":"who","type":"address","internalType":"address"},{"name":"where","type":"address","internalType":"address"}],"outputs":[{"name":"","type":"bool","internalType":"bool"}],"stateMutability":"view"},{"type":"function","name":"isOptedInAt","inputs":[{"name":"who","type":"address","internalType":"address"},{"name":"where","type":"address","internalType":"address"},{"name":"timestamp","type":"uint48","internalType":"uint48"},{"name":"hint","type":"bytes","internalType":"bytes"}],"outputs":[{"name":"","type":"bool","internalType":"bool"}],"stateMutability":"view"},{"type":"function","name":"nonces","inputs":[{"name":"who","type":"address","internalType":"address"},{"name":"where","type":"address","internalType":"address"}],"outputs":[{"name":"nonce","type":"uint256","internalType":"uint256"}],"stateMutability":"view"},{"type":"function","name":"optIn","inputs":[{"name":"where","type":"address","internalType":"address"}],"outputs":[],"stateMutability":"nonpayable"},{"type":"function","name":"optIn","inputs":[{"name":"who","type":"address","internalType":"address"},{"name":"where","type":"address","internalType":"address"},{"name":"deadline","type":"uint48","internalType":"uint48"},{"name":"signature","type":"bytes","internalType":"bytes"}],"outputs":[],"stateMutability":"nonpayable"},{"type":"function","name":"optInHint","inputs":[{"name":"optInService","type":"address","internalType":"address"},{"name":"who","type":"address","internalType":"address"},{"name":"where","type":"address","internalType":"address"},{"name":"timestamp","type":"uint48","internalType":"uint48"}],"outputs":[{"name":"","type":"bytes","internalType":"bytes"}],"stateMutability":"view"},{"type":"function","name":"optInHintInternal","inputs":[{"name":"who","type":"address","internalType":"address"},{"name":"where","type":"address","internalType":"address"},{"name":"timestamp","type":"uint48","internalType":"uint48"}],"outputs":[{"name":"exists","type":"bool","internalType":"bool"},{"name":"hint","type":"uint32","internalType":"uint32"}],"stateMutability":"view"},{"type":"function","name":"optOut","inputs":[{"name":"who","type":"address","internalType":"address"},{"name":"where","type":"address","internalType":"address"},{"name":"deadline","type":"uint48","internalType":"uint48"},{"name":"signature","type":"bytes","internalType":"bytes"}],"outputs":[],"stateMutability":"nonpayable"},{"type":"function","name":"optOut","inputs":[{"name":"where","type":"address","internalType":"address"}],"outputs":[],"stateMutability":"nonpayable"},{"type":"function","name":"staticDelegateCall","inputs":[{"name":"target","type":"address","internalType":"address"},{"name":"data","type":"bytes","internalType":"bytes"}],"outputs":[],"stateMutability":"nonpayable"},{"type":"event","name":"EIP712DomainChanged","inputs":[],"anonymous":false},{"type":"event","name":"IncreaseNonce","inputs":[{"name":"who","type":"address","indexed":true,"internalType":"address"},{"name":"where","type":"address","indexed":true,"internalType":"address"}],"anonymous":false},{"type":"event","name":"OptIn","inputs":[{"name":"who","type":"address","indexed":true,"internalType":"address"},{"name":"where","type":"address","indexed":true,"internalType":"address"}],"anonymous":false},{"type":"event","name":"OptOut","inputs":[{"name":"who","type":"address","indexed":true,"internalType":"address"},{"name":"where","type":"address","indexed":true,"internalType":"address"}],"anonymous":false},{"type":"error","name":"AlreadyOptedIn","inputs":[]},{"type":"error","name":"CheckpointUnorderedInsertion","inputs":[]},{"type":"error","name":"ExpiredSignature","inputs":[]},{"type":"error","name":"ExternalCall","inputs":[]},{"type":"error","name":"InvalidShortString","inputs":[]},{"type":"error","name":"InvalidSignature","inputs":[]},{"type":"error","name":"NotOptedIn","inputs":[]},{"type":"error","name":"NotWhereEntity","inputs":[]},{"type":"error","name":"NotWho","inputs":[]},{"type":"error","name":"OptOutCooldown","inputs":[]},{"type":"error","name":"SafeCastOverflowedUintDowncast","inputs":[{"name":"bits","type":"uint8","internalType":"uint8"},{"name":"value","type":"uint256","internalType":"uint256"}]},{"type":"error","name":"StringTooLong","inputs":[{"name":"str","type":"string","internalType":"string"}]}],"bytecode":{"object":"0x6101c034610171576001600160401b03602082018181118382101761015d576040908082525f84528151938285018581108582111761015d5783526001855260208501603160f81b81523060805261005682610175565b926101409384526100668761030c565b926101609384525190209061010096828852519020610120948186524660c05280519160208301937f8b73c3c69bb8fe3d512ecc4cf759cc79239f7b179b0ffacaa9a75d522b39400f85528284015260608301524660808301523060a083015260a0825260c08201968288109088111761015d5786905251902060a0523060e052610180915f83526101a0935f8552611bc99687610443883960805187610571015260a05187611797015260c05187611852015260e05187611761015251866117e60152518561180c015251846102fd015251836103260152518281816106c1015261109501525181818161026e01526110e80152f35b634e487b7160e01b5f52604160045260245ffd5b5f80fd5b8051602090818110156101eb5750601f8251116101ad578082519201519080831061019f57501790565b825f19910360031b1b161790565b60448260405192839163305a27a960e01b83528160048401528051918291826024860152018484015e5f828201840152601f01601f19168101030190fd5b906001600160401b03821161015d575f54926001938481811c91168015610302575b838210146102ee57601f81116102bb575b5081601f841160011461025957509282939183925f9461024e575b50501b915f199060031b1c1916175f5560ff90565b015192505f80610239565b919083601f1981165f8052845f20945f905b888383106102a15750505010610289575b505050811b015f5560ff90565b01515f1960f88460031b161c191690555f808061027c565b85870151885590960195948501948793509081019061026b565b5f805284601f845f20920160051c820191601f860160051c015b8281106102e357505061021e565b5f81550185906102d5565b634e487b7160e01b5f52602260045260245ffd5b90607f169061020d565b8051602090818110156103365750601f8251116101ad578082519201519080831061019f57501790565b9192916001600160401b03811161015d5760019182548381811c91168015610438575b828210146102ee57601f8111610405575b5080601f83116001146103a55750819293945f9261039a575b50505f19600383901b1c191690821b17905560ff90565b015190505f80610383565b90601f19831695845f52825f20925f905b8882106103ee57505083859697106103d6575b505050811b01905560ff90565b01515f1960f88460031b161c191690555f80806103c9565b8087859682949686015181550195019301906103b6565b835f5283601f835f20920160051c820191601f850160051c015b82811061042d57505061036a565b5f815501849061041f565b90607f169061035956fe60806040526004361015610011575f80fd5b5f3560e01c8063220d32d4146100f4578063530e1d43146100ef5780636d0fae4a146100ea5780638247a97c146100e557806384b0196e146100e05780639333fbda146100db57806393f79bc3146100d65780639a15d7a5146100d15780639f86fd85146100cc578063b1138ad1146100c7578063c4b5d62c146100c2578063ced44ba7146100bd578063d4610483146100b85763d4a63862146100b3575f80fd5b6107d6565b6107b4565b6106f0565b6106ac565b61068a565b6105f9565b610531565b610432565b6103db565b6102e5565b61029d565b610259565b6101f3565b610129565b600435906001600160a01b038216820361010f57565b5f80fd5b602435906001600160a01b038216820361010f57565b3461010f57604036600319011261010f5760206101556101476100f9565b61014f610113565b9061083f565b6040519015158152f35b9181601f8401121561010f5782359167ffffffffffffffff831161010f576020838186019501011161010f57565b90608060031983011261010f576001600160a01b0391600435838116810361010f5792602435908116810361010f579160443565ffffffffffff8116810361010f57916064359067ffffffffffffffff821161010f576101ef9160040161015f565b9091565b3461010f576020600161024961024f61023a61020e3661018d565b969290949193888060a01b03165f526003895260405f209060018060a01b03165f5260205260405f2090565b92868060d01b03953691610978565b91610bd6565b1614604051908152f35b3461010f575f36600319011261010f576040517f00000000000000000000000000000000000000000000000000000000000000006001600160a01b03168152602090f35b3461010f57602036600319011261010f576102bf6102b96100f9565b33610ccf565b005b805180835260209291819084018484015e5f828201840152601f01601f1916010190565b3461010f575f36600319011261010f5761037e6103217f0000000000000000000000000000000000000000000000000000000000000000611286565b61034a7f0000000000000000000000000000000000000000000000000000000000000000611384565b60405190610357826108d7565b5f825261038c602091604051958695600f60f81b875260e0602088015260e08701906102c1565b9085820360408701526102c1565b4660608501523060808501525f60a085015283810360c0850152602080845192838152019301915f5b8281106103c457505050500390f35b8351855286955093810193928101926001016103b5565b3461010f57604036600319011261010f5760206104296103f96100f9565b610401610113565b6001600160a01b039182165f9081526002855260408082209290931681526020919091522090565b54604051908152f35b3461010f576104403661018d565b909165ffffffffffff806104534261144d565b16911690811061051f576104ff926104f06104f89260018060a01b0380891691825f5260026020526104988960405f209060018060a01b03165f5260205260405f2090565b546040519260208401947f7830334d17a05ab8aeca8f1778e27182208fc2d454ac7b38a4edc2069ee3a4a6865260408501528a166060840152608083015260a082015260a081526104e8816108f3565b51902061147f565b923691610978565b9084610d25565b1561050d576102bf91610e01565b604051638baa579f60e01b8152600490fd5b60405163df4cc36d60e01b8152600490fd5b3461010f57606036600319011261010f5761054a6100f9565b610552610113565b906044359065ffffffffffff8216820361010f576001600160a01b03927f0000000000000000000000000000000000000000000000000000000000000000841633036105e7576105c6936105c192165f52600360205260405f209060018060a01b03165f5260205260405f2090565b610f2c565b60408051941515855263ffffffff91909116602085015292915050f35b0390f35b604051637ca475e560e11b8152600490fd5b3461010f57604036600319011261010f576106126100f9565b60243567ffffffffffffffff811161010f575f916106358392369060040161015f565b90816040519283928337810184815203915af46106826106536109ae565b916106746040519384921515602084015260408084015260608301906102c1565b03601f19810183528261092b565b805190602001fd5b3461010f57602036600319011261010f576102bf6106a66100f9565b33611069565b3461010f575f36600319011261010f576040517f00000000000000000000000000000000000000000000000000000000000000006001600160a01b03168152602090f35b3461010f576106fe3661018d565b909165ffffffffffff806107114261144d565b16911690811061051f576107a6926104f06104f89260018060a01b0380891691825f5260026020526107568960405f209060018060a01b03165f5260205260405f2090565b546040519260208401947f6ab5200f1123a8d51d1695a9e5e757267926b53c6359f90b8873cc7dcc30ea2c865260408501528a166060840152608083015260a082015260a081526104e8816108f3565b1561050d576102bf91611069565b3461010f57602036600319011261010f576102bf6107d06100f9565b33610e01565b3461010f57608036600319011261010f576107ef6100f9565b6107f7610113565b906044356001600160a01b038116810361010f576064359065ffffffffffff8216820361010f576105e39361082b93610a1f565b6040519182916020835260208301906102c1565b6001600160a01b039081165f908152600360209081526040808320939094168252919091522080548061087d57505060015f5b818060d01b03161490565b5f1990808281011161089d576001925f5260205f2001015460301c610872565b610b9f565b634e487b7160e01b5f52604160045260245ffd5b6040810190811067ffffffffffffffff8211176108d257604052565b6108a2565b6020810190811067ffffffffffffffff8211176108d257604052565b60c0810190811067ffffffffffffffff8211176108d257604052565b60a0810190811067ffffffffffffffff8211176108d257604052565b90601f8019910116810190811067ffffffffffffffff8211176108d257604052565b6040519061095a826108b6565b565b67ffffffffffffffff81116108d257601f01601f191660200190565b9291926109848261095c565b91610992604051938461092b565b82948184528183011161010f578281602093845f960137010152565b3d156109d8573d906109bf8261095c565b916109cd604051938461092b565b82523d5f602084013e565b606090565b5190811515820361010f57565b519063ffffffff8216820361010f57565b919082604091031261010f57610a1c6020610a15846109dd565b93016109ea565b90565b9392915f8060609665ffffffffffff604096875196602096639a15d7a560e01b888a015260018060a01b0380921660248a015216604488015216606486015260648552610a6b8561090f565b85519485610a9686820192639f86fd8560e01b845230602484015289604484015260648301906102c1565b0395610aaa601f199788810183528261092b565b51915afa50610ab76109ae565b8051810190848184840193031261010f57610ad38382016109dd565b90858101519067ffffffffffffffff821161010f57019082603f8301121561010f5783820151610b028161095c565b92610b0f8851948561092b565b8184528584019488838301011161010f57815f9289889301875e8401015215610b7d57908282610b4293510101906109fb565b9390610b4e5750505050565b610a1c93949550610b719051948592830191909163ffffffff6020820193169052565b0390810183528261092b565b8091505191821561010f5701fd5b9081602091031261010f57610a1c906109ea565b634e487b7160e01b5f52601160045260245ffd5b5f1981019190821161089d57565b90600163ffffffff8093160191821161089d57565b91805115610cc55780602080610bf193518301019101610b8b565b91610bfc8382611232565b92610c0d845165ffffffffffff1690565b9065ffffffffffff8085169216828114610cac5782119182610c4c575b5050610c3a57610a1c925061163b565b5050602001516001600160d01b031690565b909150610c598354610bb3565b63ffffffff831614918215610c72575b50505f80610c2a565b610ca4919250610c8d610c87610c9992610bc1565b85611232565b5165ffffffffffff1690565b65ffffffffffff1690565b115f80610c69565b50505050602091909101516001600160d01b0316905090565b50610a1c9161163b565b6001600160a01b039081165f8181526002602090815260408083209590941680835294905291822080546001019055907f8ed32926585579e6191b145240df788165f4957e1135f30a00e08ee8feb9d6809080a3565b610d2f83836114a5565b506004819592951015610ded57159384610dd7575b508315610d52575b50505090565b5f929350908291604051610d8a816106746020820194630b135d3f60e11b998a875260248401526040604484015260648301906102c1565b51915afa90610d976109ae565b82610dc9575b82610dad575b50505f8080610d4c565b90915060208180518101031261010f5760200151145f80610da3565b915060208251101591610d9d565b6001600160a01b0383811691161493505f610d44565b634e487b7160e01b5f52602160045260245ffd5b90610e3d610e3882610e238560018060a01b03165f52600360205260405f2090565b9060018060a01b03165f5260205260405f2090565b6118fa565b9091506001600160d01b031615610ee85765ffffffffffff80610e5f4261144d565b16911614610ed657610e97610e8882610e238560018060a01b03165f52600360205260405f2090565b610e914261144d565b906119d0565b5050610ea38183610ccf565b6001600160a01b0390811691167f1629cd9ad365627cf8408d19c50224af8f3213c1a18ae48062d92e22bddf7de55f80a3565b60405163291bf4b760e21b8152600490fd5b6040516334b09b3960e11b8152600490fd5b906001820180921161089d57565b90604051610f15816108b6565b915465ffffffffffff8116835260301c6020830152565b8054915f928060058111611001575b5092905b838210610fbb5750508115610faf57610f69610f6e91610f5e84610bb3565b905f5260205f200190565b610f08565b91610fa8610f9f610f996020610f8a875165ffffffffffff1690565b9601516001600160d01b031690565b93610bb3565b63ffffffff1690565b6001939291565b50505f905f905f905f90565b9092610fc7818561195b565b90835f5265ffffffffffff808360205f20015416908416105f14610fee5750925b90610f3f565b93506001810180911115610fe857610b9f565b9061100b826114fd565b820391821161089d57835f5265ffffffffffff808360205f20015416908416105f1461103957505b5f610f3b565b935061104490610efa565b92611033565b9081602091031261010f57610a1c906109dd565b6040513d5f823e3d90fd5b6040516302910f8b60e31b8082526001600160a01b0383811660048401529293916020919082816024817f000000000000000000000000000000000000000000000000000000000000000089165afa9081156111e6575f916111fd575b50156111eb576040519081526001600160a01b038316600482015281816024817f000000000000000000000000000000000000000000000000000000000000000088165afa9182156111e6575f926111b9575b5050156111a75761112a818461083f565b61119557806111606111518493610e238760018060a01b03165f52600360205260405f2090565b61115a4261144d565b90611aca565b505061116c8185610ccf565b1691167f9b730d5b907ee509de729817a2bb37e404418ba569b3a50f36192372f973cb415f80a3565b60405163dcdeaba360e01b8152600490fd5b6040516321f5408d60e01b8152600490fd5b6111d89250803d106111df575b6111d0818361092b565b81019061104a565b5f80611119565b503d6111c6565b61105e565b604051630fb9ff9560e41b8152600490fd5b6112149150833d85116111df576111d0818361092b565b5f6110c6565b60405190611227826108b6565b5f6020838281520152565b611257916112519161124261121a565b5061124b61121a565b50611709565b50610f08565b65ffffffffffff81511690602060018060d01b03910151166040519161127c836108b6565b8252602082015290565b60ff811461129757610a1c90611732565b506040515f80546001918160011c926001831690811561137a575b602090602086108314611366578587528694602086019390811561134757506001146112e8575b505050610a1c9250038261092b565b9250936113155f80527f290decd9548b62a8d60345a988386fc84ba6bc95484008f6362f93160ef3e56390565b945f935b82851061133157505050610a1c9350015f80806112d9565b8654858501529586019587955093810193611319565b92505050610a1c9491925060ff19168252151560051b015f80806112d9565b634e487b7160e01b5f52602260045260245ffd5b93607f16936112b2565b60ff811461139557610a1c90611732565b506040516001805480821c915f90828116908115611443575b602090602086108314611366578587528694602086019390811561134757506001146113e357505050610a1c9250038261092b565b92509361141160015f527fb10e2d527612073b26eecdfd717e6a320cf44b4afac2b0732d9fcbe2b7fa0cf690565b945f935b82851061142d57505050610a1c9350015f80806112d9565b8654858501529586019587955093810193611415565b93607f16936113ae565b65ffffffffffff90818111611460571690565b604490604051906306dfcc6560e41b8252603060048301526024820152fd5b60429061148a61175e565b906040519161190160f01b8352600283015260228201522090565b81519190604183036114d5576114ce9250602082015190606060408401519301515f1a90611878565b9192909190565b50505f9160029190565b81156114e9570490565b634e487b7160e01b5f52601260045260245ffd5b801561163657806115cf6115c86115be6115b46115aa6115a061159661158c6001610a1c9a5f908b60801c8061162a575b508060401c8061161d575b508060201c80611610575b508060101c80611603575b508060081c806115f6575b508060041c806115e9575b508060021c806115dc575b50821c6115d5575b811c1b611585818b6114df565b0160011c90565b611585818a6114df565b61158581896114df565b61158581886114df565b61158581876114df565b61158581866114df565b61158581856114df565b80926114df565b90611949565b8101611578565b600291509101905f611570565b600491509101905f611565565b600891509101905f61155a565b601091509101905f61154f565b602091509101905f611544565b604091509101905f611539565b9150506080905f61152e565b505f90565b908154905f9180600581116116c0575b5091905b82821061167a575050806116635750505f90565b610a1c91610f5e61167392610bb3565b5460301c90565b9091611686818461195b565b90845f5265ffffffffffff808360205f20015416908416105f146116ad5750915b9061164f565b925060018101809111156116a757610b9f565b906116ca826114fd565b820391821161089d57845f5265ffffffffffff808360205f20015416908416105f146116f857505b5f61164b565b925061170390610efa565b916116f2565b805482101561171e575f5260205f2001905f90565b634e487b7160e01b5f52603260045260245ffd5b60ff811690601f821161174c576040519161127c836108b6565b604051632cd44ac360e21b8152600490fd5b307f00000000000000000000000000000000000000000000000000000000000000006001600160a01b0316148061184f575b156117b9577f000000000000000000000000000000000000000000000000000000000000000090565b60405160208101907f8b73c3c69bb8fe3d512ecc4cf759cc79239f7b179b0ffacaa9a75d522b39400f82527f000000000000000000000000000000000000000000000000000000000000000060408201527f000000000000000000000000000000000000000000000000000000000000000060608201524660808201523060a082015260a08152611849816108f3565b51902090565b507f00000000000000000000000000000000000000000000000000000000000000004614611790565b91907f7fffffffffffffffffffffffffffffff5d576e7357a4501ddfe92f46681b20a084116118ef579160209360809260ff5f9560405194855216868401526040830152606082015282805260015afa156111e6575f516001600160a01b038116156118e557905f905f90565b505f906001905f90565b5050505f9160039190565b80548061190b5750505f905f905f90565b5f1990808281011161089d57611928925f5260205f200101610f08565b9065ffffffffffff82511691602060018060d01b0391015116906001929190565b9080821015611956575090565b905090565b90808216911860011c810180911161089d5790565b8054680100000000000000008110156108d25761199291600182018155611709565b9190916119bd57805160209091015160301b65ffffffffffff191665ffffffffffff91909116179055565b634e487b7160e01b5f525f60045260245ffd5b8054908115611aa8576119f3610f696119e884610bb3565b835f5260205f200190565b90611a04825165ffffffffffff1690565b65ffffffffffff8581169491168410611a9657611a6394602094611a31610c99865165ffffffffffff1690565b03611a685750611a5591610f5e611a4792610bb3565b65ffffffffffff8154169055565b01516001600160d01b031690565b905f90565b9050611a9191611a87611a7961094d565b65ffffffffffff9093168352565b5f85830152611970565b611a55565b604051632520601d60e01b8152600490fd5b611ac4929150611ab9611a7961094d565b5f6020830152611970565b5f905f90565b8054908115611b6f57611ae2610f696119e884610bb3565b90611af3825165ffffffffffff1690565b65ffffffffffff8581169491168410611a9657611b4d94602094611b20610c99865165ffffffffffff1690565b03611b535750611a5591610f5e611b3692610bb3565b660100000000000065ffffffffffff825416179055565b90600190565b9050611a9191611b64611a7961094d565b600182860152611970565b611b8c929150611b80611a7961094d565b60016020830152611970565b5f9060019056fea2646970667358221220f026c7a021cae279cf2a35ba0153ef2ac6b53f56a0983efe9a57350b06fc731064736f6c63430008190033","linkReferences":{}},"methodIdentifiers":{"WHERE_REGISTRY()":"6d0fae4a","WHO_REGISTRY()":"c4b5d62c","eip712Domain()":"84b0196e","increaseNonce(address)":"8247a97c","isOptedIn(address,address)":"220d32d4","isOptedInAt(address,address,uint48,bytes)":"530e1d43","nonces(address,address)":"9333fbda","optIn(address)":"b1138ad1","optIn(address,address,uint48,bytes)":"ced44ba7","optInHint(address,address,address,uint48)":"d4a63862","optInHintInternal(address,address,uint48)":"9a15d7a5","optOut(address)":"d4610483","optOut(address,address,uint48,bytes)":"93f79bc3","staticDelegateCall(address,bytes)":"9f86fd85"},"id":79}